{
  "_format": "hh-sol-artifact-1",
  "contractName": "TestNFT",
  "sourceName": "contracts/TestNFT.sol",
  "abi": [
    {
      "inputs": [
        {
          "internalType": "string",
          "name": "name",
          "type": "string"
        },
        {
          "internalType": "string",
          "name": "ticker",
          "type": "string"
        }
      ],
      "stateMutability": "nonpayable",
      "type": "constructor"
    },
    {
      "anonymous": false,
      "inputs": [
        {
          "indexed": true,
          "internalType": "address",
          "name": "owner",
          "type": "address"
        },
        {
          "indexed": true,
          "internalType": "address",
          "name": "approved",
          "type": "address"
        },
        {
          "indexed": true,
          "internalType": "uint256",
          "name": "tokenId",
          "type": "uint256"
        }
      ],
      "name": "Approval",
      "type": "event"
    },
    {
      "anonymous": false,
      "inputs": [
        {
          "indexed": true,
          "internalType": "address",
          "name": "owner",
          "type": "address"
        },
        {
          "indexed": true,
          "internalType": "address",
          "name": "operator",
          "type": "address"
        },
        {
          "indexed": false,
          "internalType": "bool",
          "name": "approved",
          "type": "bool"
        }
      ],
      "name": "ApprovalForAll",
      "type": "event"
    },
    {
      "anonymous": false,
      "inputs": [
        {
          "indexed": true,
          "internalType": "address",
          "name": "previousOwner",
          "type": "address"
        },
        {
          "indexed": true,
          "internalType": "address",
          "name": "newOwner",
          "type": "address"
        }
      ],
      "name": "OwnershipTransferred",
      "type": "event"
    },
    {
      "anonymous": false,
      "inputs": [
        {
          "indexed": true,
          "internalType": "address",
          "name": "from",
          "type": "address"
        },
        {
          "indexed": true,
          "internalType": "address",
          "name": "to",
          "type": "address"
        },
        {
          "indexed": true,
          "internalType": "uint256",
          "name": "tokenId",
          "type": "uint256"
        }
      ],
      "name": "Transfer",
      "type": "event"
    },
    {
      "inputs": [
        {
          "internalType": "address",
          "name": "to",
          "type": "address"
        },
        {
          "internalType": "uint256",
          "name": "tokenId",
          "type": "uint256"
        }
      ],
      "name": "approve",
      "outputs": [],
      "stateMutability": "nonpayable",
      "type": "function"
    },
    {
      "inputs": [
        {
          "internalType": "address",
          "name": "owner",
          "type": "address"
        }
      ],
      "name": "balanceOf",
      "outputs": [
        {
          "internalType": "uint256",
          "name": "",
          "type": "uint256"
        }
      ],
      "stateMutability": "view",
      "type": "function"
    },
    {
      "inputs": [],
      "name": "baseTokenURI",
      "outputs": [
        {
          "internalType": "string",
          "name": "",
          "type": "string"
        }
      ],
      "stateMutability": "pure",
      "type": "function"
    },
    {
      "inputs": [
        {
          "internalType": "uint256",
          "name": "tokenId",
          "type": "uint256"
        }
      ],
      "name": "getApproved",
      "outputs": [
        {
          "internalType": "address",
          "name": "",
          "type": "address"
        }
      ],
      "stateMutability": "view",
      "type": "function"
    },
    {
      "inputs": [
        {
          "internalType": "address",
          "name": "owner",
          "type": "address"
        },
        {
          "internalType": "address",
          "name": "operator",
          "type": "address"
        }
      ],
      "name": "isApprovedForAll",
      "outputs": [
        {
          "internalType": "bool",
          "name": "",
          "type": "bool"
        }
      ],
      "stateMutability": "view",
      "type": "function"
    },
    {
      "inputs": [
        {
          "internalType": "address",
          "name": "_to",
          "type": "address"
        }
      ],
      "name": "mintTo",
      "outputs": [],
      "stateMutability": "nonpayable",
      "type": "function"
    },
    {
      "inputs": [],
      "name": "name",
      "outputs": [
        {
          "internalType": "string",
          "name": "",
          "type": "string"
        }
      ],
      "stateMutability": "view",
      "type": "function"
    },
    {
      "inputs": [],
      "name": "owner",
      "outputs": [
        {
          "internalType": "address",
          "name": "",
          "type": "address"
        }
      ],
      "stateMutability": "view",
      "type": "function"
    },
    {
      "inputs": [
        {
          "internalType": "uint256",
          "name": "tokenId",
          "type": "uint256"
        }
      ],
      "name": "ownerOf",
      "outputs": [
        {
          "internalType": "address",
          "name": "",
          "type": "address"
        }
      ],
      "stateMutability": "view",
      "type": "function"
    },
    {
      "inputs": [],
      "name": "renounceOwnership",
      "outputs": [],
      "stateMutability": "nonpayable",
      "type": "function"
    },
    {
      "inputs": [
        {
          "internalType": "address",
          "name": "from",
          "type": "address"
        },
        {
          "internalType": "address",
          "name": "to",
          "type": "address"
        },
        {
          "internalType": "uint256",
          "name": "tokenId",
          "type": "uint256"
        }
      ],
      "name": "safeTransferFrom",
      "outputs": [],
      "stateMutability": "nonpayable",
      "type": "function"
    },
    {
      "inputs": [
        {
          "internalType": "address",
          "name": "from",
          "type": "address"
        },
        {
          "internalType": "address",
          "name": "to",
          "type": "address"
        },
        {
          "internalType": "uint256",
          "name": "tokenId",
          "type": "uint256"
        },
        {
          "internalType": "bytes",
          "name": "_data",
          "type": "bytes"
        }
      ],
      "name": "safeTransferFrom",
      "outputs": [],
      "stateMutability": "nonpayable",
      "type": "function"
    },
    {
      "inputs": [
        {
          "internalType": "address",
          "name": "operator",
          "type": "address"
        },
        {
          "internalType": "bool",
          "name": "approved",
          "type": "bool"
        }
      ],
      "name": "setApprovalForAll",
      "outputs": [],
      "stateMutability": "nonpayable",
      "type": "function"
    },
    {
      "inputs": [
        {
          "internalType": "bytes4",
          "name": "interfaceId",
          "type": "bytes4"
        }
      ],
      "name": "supportsInterface",
      "outputs": [
        {
          "internalType": "bool",
          "name": "",
          "type": "bool"
        }
      ],
      "stateMutability": "view",
      "type": "function"
    },
    {
      "inputs": [],
      "name": "symbol",
      "outputs": [
        {
          "internalType": "string",
          "name": "",
          "type": "string"
        }
      ],
      "stateMutability": "view",
      "type": "function"
    },
    {
      "inputs": [
        {
          "internalType": "uint256",
          "name": "_tokenId",
          "type": "uint256"
        }
      ],
      "name": "tokenURI",
      "outputs": [
        {
          "internalType": "string",
          "name": "",
          "type": "string"
        }
      ],
      "stateMutability": "pure",
      "type": "function"
    },
    {
      "inputs": [],
      "name": "totalSupply",
      "outputs": [
        {
          "internalType": "uint256",
          "name": "",
          "type": "uint256"
        }
      ],
      "stateMutability": "view",
      "type": "function"
    },
    {
      "inputs": [
        {
          "internalType": "address",
          "name": "from",
          "type": "address"
        },
        {
          "internalType": "address",
          "name": "to",
          "type": "address"
        },
        {
          "internalType": "uint256",
          "name": "tokenId",
          "type": "uint256"
        }
      ],
      "name": "transferFrom",
      "outputs": [],
      "stateMutability": "nonpayable",
      "type": "function"
    },
    {
      "inputs": [
        {
          "internalType": "address",
          "name": "newOwner",
          "type": "address"
        }
      ],
      "name": "transferOwnership",
      "outputs": [],
      "stateMutability": "nonpayable",
      "type": "function"
    }
  ],
  "bytecode": "0x60806040523480156200001157600080fd5b506040516200193838038062001938833981016040819052620000349162000276565b8181818181600090805190602001906200005092919062000103565b5080516200006690600190602084019062000103565b505050620000836200007d620000a460201b60201c565b620000a8565b6200009a6007620000fa60201b620008931760201c565b505050506200031d565b3390565b600680546001600160a01b038381166001600160a01b0319831681179093556040519116919082907f8be0079c531659141344cd1fd0a4f28419497f9722a3daafe3b4186f6b6457e090600090a35050565b80546001019055565b8280546200011190620002e0565b90600052602060002090601f01602090048101928262000135576000855562000180565b82601f106200015057805160ff191683800117855562000180565b8280016001018555821562000180579182015b828111156200018057825182559160200191906001019062000163565b506200018e92915062000192565b5090565b5b808211156200018e576000815560010162000193565b634e487b7160e01b600052604160045260246000fd5b600082601f830112620001d157600080fd5b81516001600160401b0380821115620001ee57620001ee620001a9565b604051601f8301601f19908116603f01168101908282118183101715620002195762000219620001a9565b816040528381526020925086838588010111156200023657600080fd5b600091505b838210156200025a57858201830151818301840152908201906200023b565b838211156200026c5760008385830101525b9695505050505050565b600080604083850312156200028a57600080fd5b82516001600160401b0380821115620002a257600080fd5b620002b086838701620001bf565b93506020850151915080821115620002c757600080fd5b50620002d685828601620001bf565b9150509250929050565b600181811c90821680620002f557607f821691505b602082108114156200031757634e487b7160e01b600052602260045260246000fd5b50919050565b61160b806200032d6000396000f3fe608060405234801561001057600080fd5b50600436106101215760003560e01c8063715018a6116100ad578063b88d4fde11610071578063b88d4fde1461024c578063c87b56dd1461025f578063d547cfb714610272578063e985e9c51461027a578063f2fde38b146102b657600080fd5b8063715018a614610205578063755edd171461020d5780638da5cb5b1461022057806395d89b4114610231578063a22cb4651461023957600080fd5b806318160ddd116100f457806318160ddd146101a357806323b872dd146101b957806342842e0e146101cc5780636352211e146101df57806370a08231146101f257600080fd5b806301ffc9a71461012657806306fdde031461014e578063081812fc14610163578063095ea7b31461018e575b600080fd5b6101396101343660046110a1565b6102c9565b60405190151581526020015b60405180910390f35b61015661031b565b604051610145919061111d565b610176610171366004611130565b6103ad565b6040516001600160a01b039091168152602001610145565b6101a161019c366004611165565b610447565b005b6101ab61055d565b604051908152602001610145565b6101a16101c736600461118f565b610579565b6101a16101da36600461118f565b6105aa565b6101766101ed366004611130565b6105c5565b6101ab6102003660046111cb565b61063c565b6101a16106c3565b6101a161021b3660046111cb565b6106f9565b6006546001600160a01b0316610176565b61015661074c565b6101a16102473660046111e6565b61075b565b6101a161025a366004611238565b610766565b61015661026d366004611130565b61079e565b6101566107d8565b610139610288366004611314565b6001600160a01b03918216600090815260056020908152604080832093909416825291909152205460ff1690565b6101a16102c43660046111cb565b6107f8565b60006001600160e01b031982166380ac58cd60e01b14806102fa57506001600160e01b03198216635b5e139f60e01b145b8061031557506301ffc9a760e01b6001600160e01b03198316145b92915050565b60606000805461032a90611347565b80601f016020809104026020016040519081016040528092919081815260200182805461035690611347565b80156103a35780601f10610378576101008083540402835291602001916103a3565b820191906000526020600020905b81548152906001019060200180831161038657829003601f168201915b5050505050905090565b6000818152600260205260408120546001600160a01b031661042b5760405162461bcd60e51b815260206004820152602c60248201527f4552433732313a20617070726f76656420717565727920666f72206e6f6e657860448201526b34b9ba32b73a103a37b5b2b760a11b60648201526084015b60405180910390fd5b506000908152600460205260409020546001600160a01b031690565b6000610452826105c5565b9050806001600160a01b0316836001600160a01b031614156104c05760405162461bcd60e51b815260206004820152602160248201527f4552433732313a20617070726f76616c20746f2063757272656e74206f776e656044820152603960f91b6064820152608401610422565b336001600160a01b03821614806104dc57506104dc8133610288565b61054e5760405162461bcd60e51b815260206004820152603860248201527f4552433732313a20617070726f76652063616c6c6572206973206e6f74206f7760448201527f6e6572206e6f7220617070726f76656420666f7220616c6c00000000000000006064820152608401610422565b610558838361089c565b505050565b6000600161056a60075490565b6105749190611398565b905090565b610583338261090a565b61059f5760405162461bcd60e51b8152600401610422906113af565b610558838383610a01565b61055883838360405180602001604052806000815250610766565b6000818152600260205260408120546001600160a01b0316806103155760405162461bcd60e51b815260206004820152602960248201527f4552433732313a206f776e657220717565727920666f72206e6f6e657869737460448201526832b73a103a37b5b2b760b91b6064820152608401610422565b60006001600160a01b0382166106a75760405162461bcd60e51b815260206004820152602a60248201527f4552433732313a2062616c616e636520717565727920666f7220746865207a65604482015269726f206164647265737360b01b6064820152608401610422565b506001600160a01b031660009081526003602052604090205490565b6006546001600160a01b031633146106ed5760405162461bcd60e51b815260040161042290611400565b6106f76000610b9d565b565b6006546001600160a01b031633146107235760405162461bcd60e51b815260040161042290611400565b600061072e60075490565b905061073e600780546001019055565b6107488282610bef565b5050565b60606001805461032a90611347565b610748338383610c09565b610770338361090a565b61078c5760405162461bcd60e51b8152600401610422906113af565b61079884848484610cd8565b50505050565b60606107a86107d8565b6107b183610d0b565b6040516020016107c2929190611435565b6040516020818303038152906040529050919050565b60606040518060600160405280603e8152602001611598603e9139905090565b6006546001600160a01b031633146108225760405162461bcd60e51b815260040161042290611400565b6001600160a01b0381166108875760405162461bcd60e51b815260206004820152602660248201527f4f776e61626c653a206e6577206f776e657220697320746865207a65726f206160448201526564647265737360d01b6064820152608401610422565b61089081610b9d565b50565b80546001019055565b600081815260046020526040902080546001600160a01b0319166001600160a01b03841690811790915581906108d1826105c5565b6001600160a01b03167f8c5be1e5ebec7d5bd14f71427d1e84f3dd0314c0f7b2291e5b200ac8c7c3b92560405160405180910390a45050565b6000818152600260205260408120546001600160a01b03166109835760405162461bcd60e51b815260206004820152602c60248201527f4552433732313a206f70657261746f7220717565727920666f72206e6f6e657860448201526b34b9ba32b73a103a37b5b2b760a11b6064820152608401610422565b600061098e836105c5565b9050806001600160a01b0316846001600160a01b031614806109d557506001600160a01b0380821660009081526005602090815260408083209388168352929052205460ff165b806109f95750836001600160a01b03166109ee846103ad565b6001600160a01b0316145b949350505050565b826001600160a01b0316610a14826105c5565b6001600160a01b031614610a785760405162461bcd60e51b815260206004820152602560248201527f4552433732313a207472616e736665722066726f6d20696e636f72726563742060448201526437bbb732b960d91b6064820152608401610422565b6001600160a01b038216610ada5760405162461bcd60e51b8152602060048201526024808201527f4552433732313a207472616e7366657220746f20746865207a65726f206164646044820152637265737360e01b6064820152608401610422565b610ae560008261089c565b6001600160a01b0383166000908152600360205260408120805460019290610b0e908490611398565b90915550506001600160a01b0382166000908152600360205260408120805460019290610b3c908490611464565b909155505060008181526002602052604080822080546001600160a01b0319166001600160a01b0386811691821790925591518493918716917fddf252ad1be2c89b69c2b068fc378daa952ba7f163c4a11628f55a4df523b3ef91a4505050565b600680546001600160a01b038381166001600160a01b0319831681179093556040519116919082907f8be0079c531659141344cd1fd0a4f28419497f9722a3daafe3b4186f6b6457e090600090a35050565b610748828260405180602001604052806000815250610e09565b816001600160a01b0316836001600160a01b03161415610c6b5760405162461bcd60e51b815260206004820152601960248201527f4552433732313a20617070726f766520746f2063616c6c6572000000000000006044820152606401610422565b6001600160a01b03838116600081815260056020908152604080832094871680845294825291829020805460ff191686151590811790915591519182527f17307eab39ab6107e8899845ad3d59bd9653f200f220920489ca2b5937696c31910160405180910390a3505050565b610ce3848484610a01565b610cef84848484610e3c565b6107985760405162461bcd60e51b81526004016104229061147c565b606081610d2f5750506040805180820190915260018152600360fc1b602082015290565b8160005b8115610d595780610d43816114ce565b9150610d529050600a836114ff565b9150610d33565b60008167ffffffffffffffff811115610d7457610d74611222565b6040519080825280601f01601f191660200182016040528015610d9e576020820181803683370190505b5090505b84156109f957610db3600183611398565b9150610dc0600a86611513565b610dcb906030611464565b60f81b818381518110610de057610de0611527565b60200101906001600160f81b031916908160001a905350610e02600a866114ff565b9450610da2565b610e138383610f49565b610e206000848484610e3c565b6105585760405162461bcd60e51b81526004016104229061147c565b60006001600160a01b0384163b15610f3e57604051630a85bd0160e11b81526001600160a01b0385169063150b7a0290610e8090339089908890889060040161153d565b602060405180830381600087803b158015610e9a57600080fd5b505af1925050508015610eca575060408051601f3d908101601f19168201909252610ec79181019061157a565b60015b610f24573d808015610ef8576040519150601f19603f3d011682016040523d82523d6000602084013e610efd565b606091505b508051610f1c5760405162461bcd60e51b81526004016104229061147c565b805181602001fd5b6001600160e01b031916630a85bd0160e11b1490506109f9565b506001949350505050565b6001600160a01b038216610f9f5760405162461bcd60e51b815260206004820181905260248201527f4552433732313a206d696e7420746f20746865207a65726f20616464726573736044820152606401610422565b6000818152600260205260409020546001600160a01b0316156110045760405162461bcd60e51b815260206004820152601c60248201527f4552433732313a20746f6b656e20616c7265616479206d696e746564000000006044820152606401610422565b6001600160a01b038216600090815260036020526040812080546001929061102d908490611464565b909155505060008181526002602052604080822080546001600160a01b0319166001600160a01b03861690811790915590518392907fddf252ad1be2c89b69c2b068fc378daa952ba7f163c4a11628f55a4df523b3ef908290a45050565b6001600160e01b03198116811461089057600080fd5b6000602082840312156110b357600080fd5b81356110be8161108b565b9392505050565b60005b838110156110e05781810151838201526020016110c8565b838111156107985750506000910152565b600081518084526111098160208601602086016110c5565b601f01601f19169290920160200192915050565b6020815260006110be60208301846110f1565b60006020828403121561114257600080fd5b5035919050565b80356001600160a01b038116811461116057600080fd5b919050565b6000806040838503121561117857600080fd5b61118183611149565b946020939093013593505050565b6000806000606084860312156111a457600080fd5b6111ad84611149565b92506111bb60208501611149565b9150604084013590509250925092565b6000602082840312156111dd57600080fd5b6110be82611149565b600080604083850312156111f957600080fd5b61120283611149565b91506020830135801515811461121757600080fd5b809150509250929050565b634e487b7160e01b600052604160045260246000fd5b6000806000806080858703121561124e57600080fd5b61125785611149565b935061126560208601611149565b925060408501359150606085013567ffffffffffffffff8082111561128957600080fd5b818701915087601f83011261129d57600080fd5b8135818111156112af576112af611222565b604051601f8201601f19908116603f011681019083821181831017156112d7576112d7611222565b816040528281528a60208487010111156112f057600080fd5b82602086016020830137600060208483010152809550505050505092959194509250565b6000806040838503121561132757600080fd5b61133083611149565b915061133e60208401611149565b90509250929050565b600181811c9082168061135b57607f821691505b6020821081141561137c57634e487b7160e01b600052602260045260246000fd5b50919050565b634e487b7160e01b600052601160045260246000fd5b6000828210156113aa576113aa611382565b500390565b60208082526031908201527f4552433732313a207472616e736665722063616c6c6572206973206e6f74206f6040820152701ddb995c881b9bdc88185c1c1c9bdd9959607a1b606082015260800190565b6020808252818101527f4f776e61626c653a2063616c6c6572206973206e6f7420746865206f776e6572604082015260600190565b600083516114478184602088016110c5565b83519083019061145b8183602088016110c5565b01949350505050565b6000821982111561147757611477611382565b500190565b60208082526032908201527f4552433732313a207472616e7366657220746f206e6f6e20455243373231526560408201527131b2b4bb32b91034b6b83632b6b2b73a32b960711b606082015260800190565b60006000198214156114e2576114e2611382565b5060010190565b634e487b7160e01b600052601260045260246000fd5b60008261150e5761150e6114e9565b500490565b600082611522576115226114e9565b500690565b634e487b7160e01b600052603260045260246000fd5b6001600160a01b0385811682528416602082015260408101839052608060608201819052600090611570908301846110f1565b9695505050505050565b60006020828403121561158c57600080fd5b81516110be8161108b56fe68747470733a2f2f64657661756c742d6d657461646174612e73332e61702d6e6f727468656173742d312e616d617a6f6e6177732e636f6d2f323034382fa2646970667358221220e0050377bcce937d77bad634bc4244316a6a04db38fe30ce58c58277f8b67be464736f6c63430008090033",
  "linkReferences": {},
  "deployedLinkReferences": {}
}