{
  "_format": "hh-sol-artifact-1",
  "contractName": "TestNFT",
  "sourceName": "contracts/TestNFT.sol",
  "abi": [
    {
      "inputs": [
        {
          "internalType": "string",
          "name": "name",
          "type": "string"
        },
        {
          "internalType": "string",
          "name": "ticker",
          "type": "string"
        },
        {
          "internalType": "string",
          "name": "_baseURI",
          "type": "string"
        }
      ],
      "stateMutability": "nonpayable",
      "type": "constructor"
    },
    {
      "anonymous": false,
      "inputs": [
        {
          "indexed": true,
          "internalType": "address",
          "name": "owner",
          "type": "address"
        },
        {
          "indexed": true,
          "internalType": "address",
          "name": "approved",
          "type": "address"
        },
        {
          "indexed": true,
          "internalType": "uint256",
          "name": "tokenId",
          "type": "uint256"
        }
      ],
      "name": "Approval",
      "type": "event"
    },
    {
      "anonymous": false,
      "inputs": [
        {
          "indexed": true,
          "internalType": "address",
          "name": "owner",
          "type": "address"
        },
        {
          "indexed": true,
          "internalType": "address",
          "name": "operator",
          "type": "address"
        },
        {
          "indexed": false,
          "internalType": "bool",
          "name": "approved",
          "type": "bool"
        }
      ],
      "name": "ApprovalForAll",
      "type": "event"
    },
    {
      "anonymous": false,
      "inputs": [
        {
          "indexed": true,
          "internalType": "address",
          "name": "previousOwner",
          "type": "address"
        },
        {
          "indexed": true,
          "internalType": "address",
          "name": "newOwner",
          "type": "address"
        }
      ],
      "name": "OwnershipTransferred",
      "type": "event"
    },
    {
      "anonymous": false,
      "inputs": [
        {
          "indexed": true,
          "internalType": "address",
          "name": "from",
          "type": "address"
        },
        {
          "indexed": true,
          "internalType": "address",
          "name": "to",
          "type": "address"
        },
        {
          "indexed": true,
          "internalType": "uint256",
          "name": "tokenId",
          "type": "uint256"
        }
      ],
      "name": "Transfer",
      "type": "event"
    },
    {
      "inputs": [
        {
          "internalType": "address",
          "name": "to",
          "type": "address"
        },
        {
          "internalType": "uint256",
          "name": "tokenId",
          "type": "uint256"
        }
      ],
      "name": "approve",
      "outputs": [],
      "stateMutability": "nonpayable",
      "type": "function"
    },
    {
      "inputs": [
        {
          "internalType": "address",
          "name": "owner",
          "type": "address"
        }
      ],
      "name": "balanceOf",
      "outputs": [
        {
          "internalType": "uint256",
          "name": "",
          "type": "uint256"
        }
      ],
      "stateMutability": "view",
      "type": "function"
    },
    {
      "inputs": [],
      "name": "baseTokenURI",
      "outputs": [
        {
          "internalType": "string",
          "name": "",
          "type": "string"
        }
      ],
      "stateMutability": "view",
      "type": "function"
    },
    {
      "inputs": [
        {
          "internalType": "uint256",
          "name": "id",
          "type": "uint256"
        },
        {
          "internalType": "address",
          "name": "_to",
          "type": "address"
        }
      ],
      "name": "changeOwnership",
      "outputs": [],
      "stateMutability": "nonpayable",
      "type": "function"
    },
    {
      "inputs": [
        {
          "internalType": "uint256",
          "name": "id",
          "type": "uint256"
        },
        {
          "internalType": "address",
          "name": "_to",
          "type": "address"
        }
      ],
      "name": "create",
      "outputs": [],
      "stateMutability": "nonpayable",
      "type": "function"
    },
    {
      "inputs": [
        {
          "internalType": "uint256",
          "name": "tokenId",
          "type": "uint256"
        }
      ],
      "name": "getApproved",
      "outputs": [
        {
          "internalType": "address",
          "name": "",
          "type": "address"
        }
      ],
      "stateMutability": "view",
      "type": "function"
    },
    {
      "inputs": [
        {
          "internalType": "address",
          "name": "owner",
          "type": "address"
        },
        {
          "internalType": "address",
          "name": "operator",
          "type": "address"
        }
      ],
      "name": "isApprovedForAll",
      "outputs": [
        {
          "internalType": "bool",
          "name": "",
          "type": "bool"
        }
      ],
      "stateMutability": "view",
      "type": "function"
    },
    {
      "inputs": [
        {
          "internalType": "address",
          "name": "_to",
          "type": "address"
        }
      ],
      "name": "mintTo",
      "outputs": [],
      "stateMutability": "nonpayable",
      "type": "function"
    },
    {
      "inputs": [],
      "name": "name",
      "outputs": [
        {
          "internalType": "string",
          "name": "",
          "type": "string"
        }
      ],
      "stateMutability": "view",
      "type": "function"
    },
    {
      "inputs": [],
      "name": "owner",
      "outputs": [
        {
          "internalType": "address",
          "name": "",
          "type": "address"
        }
      ],
      "stateMutability": "view",
      "type": "function"
    },
    {
      "inputs": [
        {
          "internalType": "uint256",
          "name": "tokenId",
          "type": "uint256"
        }
      ],
      "name": "ownerOf",
      "outputs": [
        {
          "internalType": "address",
          "name": "",
          "type": "address"
        }
      ],
      "stateMutability": "view",
      "type": "function"
    },
    {
      "inputs": [],
      "name": "renounceOwnership",
      "outputs": [],
      "stateMutability": "nonpayable",
      "type": "function"
    },
    {
      "inputs": [
        {
          "internalType": "address",
          "name": "from",
          "type": "address"
        },
        {
          "internalType": "address",
          "name": "to",
          "type": "address"
        },
        {
          "internalType": "uint256",
          "name": "tokenId",
          "type": "uint256"
        }
      ],
      "name": "safeTransferFrom",
      "outputs": [],
      "stateMutability": "nonpayable",
      "type": "function"
    },
    {
      "inputs": [
        {
          "internalType": "address",
          "name": "from",
          "type": "address"
        },
        {
          "internalType": "address",
          "name": "to",
          "type": "address"
        },
        {
          "internalType": "uint256",
          "name": "tokenId",
          "type": "uint256"
        },
        {
          "internalType": "bytes",
          "name": "_data",
          "type": "bytes"
        }
      ],
      "name": "safeTransferFrom",
      "outputs": [],
      "stateMutability": "nonpayable",
      "type": "function"
    },
    {
      "inputs": [
        {
          "internalType": "address",
          "name": "operator",
          "type": "address"
        },
        {
          "internalType": "bool",
          "name": "approved",
          "type": "bool"
        }
      ],
      "name": "setApprovalForAll",
      "outputs": [],
      "stateMutability": "nonpayable",
      "type": "function"
    },
    {
      "inputs": [
        {
          "internalType": "string",
          "name": "_baseURI",
          "type": "string"
        }
      ],
      "name": "setBaseTokenURI",
      "outputs": [],
      "stateMutability": "nonpayable",
      "type": "function"
    },
    {
      "inputs": [
        {
          "internalType": "bytes4",
          "name": "interfaceId",
          "type": "bytes4"
        }
      ],
      "name": "supportsInterface",
      "outputs": [
        {
          "internalType": "bool",
          "name": "",
          "type": "bool"
        }
      ],
      "stateMutability": "view",
      "type": "function"
    },
    {
      "inputs": [],
      "name": "symbol",
      "outputs": [
        {
          "internalType": "string",
          "name": "",
          "type": "string"
        }
      ],
      "stateMutability": "view",
      "type": "function"
    },
    {
      "inputs": [
        {
          "internalType": "uint256",
          "name": "_tokenId",
          "type": "uint256"
        }
      ],
      "name": "tokenURI",
      "outputs": [
        {
          "internalType": "string",
          "name": "",
          "type": "string"
        }
      ],
      "stateMutability": "view",
      "type": "function"
    },
    {
      "inputs": [],
      "name": "totalSupply",
      "outputs": [
        {
          "internalType": "uint256",
          "name": "",
          "type": "uint256"
        }
      ],
      "stateMutability": "view",
      "type": "function"
    },
    {
      "inputs": [
        {
          "internalType": "address",
          "name": "from",
          "type": "address"
        },
        {
          "internalType": "address",
          "name": "to",
          "type": "address"
        },
        {
          "internalType": "uint256",
          "name": "tokenId",
          "type": "uint256"
        }
      ],
      "name": "transferFrom",
      "outputs": [],
      "stateMutability": "nonpayable",
      "type": "function"
    },
    {
      "inputs": [
        {
          "internalType": "address",
          "name": "newOwner",
          "type": "address"
        }
      ],
      "name": "transferOwnership",
      "outputs": [],
      "stateMutability": "nonpayable",
      "type": "function"
    }
  ],
  "bytecode": "0x60806040523480156200001157600080fd5b5060405162001bb838038062001bb88339810160408190526200003491620002fb565b8282818181600090805190602001906200005092919062000188565b5080516200006690600190602084019062000188565b505050620000836200007d620000b160201b60201c565b620000b5565b6200009a60076200010760201b6200098a1760201c565b50620000a890508162000110565b505050620003c9565b3390565b600680546001600160a01b038381166001600160a01b0319831681179093556040519116919082907f8be0079c531659141344cd1fd0a4f28419497f9722a3daafe3b4186f6b6457e090600090a35050565b80546001019055565b6006546001600160a01b031633146200016f5760405162461bcd60e51b815260206004820181905260248201527f4f776e61626c653a2063616c6c6572206973206e6f7420746865206f776e6572604482015260640160405180910390fd5b80516200018490600890602084019062000188565b5050565b82805462000196906200038c565b90600052602060002090601f016020900481019282620001ba576000855562000205565b82601f10620001d557805160ff191683800117855562000205565b8280016001018555821562000205579182015b8281111562000205578251825591602001919060010190620001e8565b506200021392915062000217565b5090565b5b8082111562000213576000815560010162000218565b634e487b7160e01b600052604160045260246000fd5b600082601f8301126200025657600080fd5b81516001600160401b03808211156200027357620002736200022e565b604051601f8301601f19908116603f011681019082821181831017156200029e576200029e6200022e565b81604052838152602092508683858801011115620002bb57600080fd5b600091505b83821015620002df5785820183015181830184015290820190620002c0565b83821115620002f15760008385830101525b9695505050505050565b6000806000606084860312156200031157600080fd5b83516001600160401b03808211156200032957600080fd5b620003378783880162000244565b945060208601519150808211156200034e57600080fd5b6200035c8783880162000244565b935060408601519150808211156200037357600080fd5b50620003828682870162000244565b9150509250925092565b600181811c90821680620003a157607f821691505b60208210811415620003c357634e487b7160e01b600052602260045260246000fd5b50919050565b6117df80620003d96000396000f3fe608060405234801561001057600080fd5b50600436106101425760003560e01c8063755edd17116100b8578063b88d4fde1161007c578063b88d4fde14610293578063c87b56dd146102a6578063d547cfb7146102b9578063e985e9c5146102c1578063f01fe692146102fd578063f2fde38b1461031057600080fd5b8063755edd171461024157806389b3887e146102545780638da5cb5b1461026757806395d89b4114610278578063a22cb4651461028057600080fd5b806323b872dd1161010a57806323b872dd146101da57806330176e13146101ed57806342842e0e146102005780636352211e1461021357806370a0823114610226578063715018a61461023957600080fd5b806301ffc9a71461014757806306fdde031461016f578063081812fc14610184578063095ea7b3146101af57806318160ddd146101c4575b600080fd5b61015a610155366004611231565b610323565b60405190151581526020015b60405180910390f35b610177610375565b60405161016691906112ad565b6101976101923660046112c0565b610407565b6040516001600160a01b039091168152602001610166565b6101c26101bd3660046112f5565b6104a1565b005b6101cc6105b7565b604051908152602001610166565b6101c26101e836600461131f565b6105d3565b6101c26101fb3660046113e7565b610604565b6101c261020e36600461131f565b610645565b6101976102213660046112c0565b610660565b6101cc610234366004611430565b6106d7565b6101c261075e565b6101c261024f366004611430565b610794565b6101c261026236600461144b565b6107e3565b6006546001600160a01b0316610197565b610177610820565b6101c261028e366004611477565b61082f565b6101c26102a13660046114b3565b61083a565b6101776102b43660046112c0565b610872565b6101776108ac565b61015a6102cf36600461152f565b6001600160a01b03918216600090815260056020908152604080832093909416825291909152205460ff1690565b6101c261030b36600461144b565b6108bb565b6101c261031e366004611430565b6108ef565b60006001600160e01b031982166380ac58cd60e01b148061035457506001600160e01b03198216635b5e139f60e01b145b8061036f57506301ffc9a760e01b6001600160e01b03198316145b92915050565b60606000805461038490611559565b80601f01602080910402602001604051908101604052809291908181526020018280546103b090611559565b80156103fd5780601f106103d2576101008083540402835291602001916103fd565b820191906000526020600020905b8154815290600101906020018083116103e057829003601f168201915b5050505050905090565b6000818152600260205260408120546001600160a01b03166104855760405162461bcd60e51b815260206004820152602c60248201527f4552433732313a20617070726f76656420717565727920666f72206e6f6e657860448201526b34b9ba32b73a103a37b5b2b760a11b60648201526084015b60405180910390fd5b506000908152600460205260409020546001600160a01b031690565b60006104ac82610660565b9050806001600160a01b0316836001600160a01b0316141561051a5760405162461bcd60e51b815260206004820152602160248201527f4552433732313a20617070726f76616c20746f2063757272656e74206f776e656044820152603960f91b606482015260840161047c565b336001600160a01b0382161480610536575061053681336102cf565b6105a85760405162461bcd60e51b815260206004820152603860248201527f4552433732313a20617070726f76652063616c6c6572206973206e6f74206f7760448201527f6e6572206e6f7220617070726f76656420666f7220616c6c0000000000000000606482015260840161047c565b6105b28383610993565b505050565b600060016105c460075490565b6105ce91906115aa565b905090565b6105dd3382610a01565b6105f95760405162461bcd60e51b815260040161047c906115c1565b6105b2838383610af8565b6006546001600160a01b0316331461062e5760405162461bcd60e51b815260040161047c90611612565b8051610641906008906020840190611182565b5050565b6105b28383836040518060200160405280600081525061083a565b6000818152600260205260408120546001600160a01b03168061036f5760405162461bcd60e51b815260206004820152602960248201527f4552433732313a206f776e657220717565727920666f72206e6f6e657869737460448201526832b73a103a37b5b2b760b91b606482015260840161047c565b60006001600160a01b0382166107425760405162461bcd60e51b815260206004820152602a60248201527f4552433732313a2062616c616e636520717565727920666f7220746865207a65604482015269726f206164647265737360b01b606482015260840161047c565b506001600160a01b031660009081526003602052604090205490565b6006546001600160a01b031633146107885760405162461bcd60e51b815260040161047c90611612565b6107926000610c94565b565b6006546001600160a01b031633146107be5760405162461bcd60e51b815260040161047c90611612565b60006107c960075490565b90506107d9600780546001019055565b6106418282610ce6565b6006546001600160a01b0316331461080d5760405162461bcd60e51b815260040161047c90611612565b61064161081983610660565b8284610af8565b60606001805461038490611559565b610641338383610d00565b6108443383610a01565b6108605760405162461bcd60e51b815260040161047c906115c1565b61086c84848484610dcf565b50505050565b606061087c6108ac565b61088583610e02565b604051602001610896929190611647565b6040516020818303038152906040529050919050565b60606008805461038490611559565b6006546001600160a01b031633146108e55760405162461bcd60e51b815260040161047c90611612565b6106418183610ce6565b6006546001600160a01b031633146109195760405162461bcd60e51b815260040161047c90611612565b6001600160a01b03811661097e5760405162461bcd60e51b815260206004820152602660248201527f4f776e61626c653a206e6577206f776e657220697320746865207a65726f206160448201526564647265737360d01b606482015260840161047c565b61098781610c94565b50565b80546001019055565b600081815260046020526040902080546001600160a01b0319166001600160a01b03841690811790915581906109c882610660565b6001600160a01b03167f8c5be1e5ebec7d5bd14f71427d1e84f3dd0314c0f7b2291e5b200ac8c7c3b92560405160405180910390a45050565b6000818152600260205260408120546001600160a01b0316610a7a5760405162461bcd60e51b815260206004820152602c60248201527f4552433732313a206f70657261746f7220717565727920666f72206e6f6e657860448201526b34b9ba32b73a103a37b5b2b760a11b606482015260840161047c565b6000610a8583610660565b9050806001600160a01b0316846001600160a01b03161480610acc57506001600160a01b0380821660009081526005602090815260408083209388168352929052205460ff165b80610af05750836001600160a01b0316610ae584610407565b6001600160a01b0316145b949350505050565b826001600160a01b0316610b0b82610660565b6001600160a01b031614610b6f5760405162461bcd60e51b815260206004820152602560248201527f4552433732313a207472616e736665722066726f6d20696e636f72726563742060448201526437bbb732b960d91b606482015260840161047c565b6001600160a01b038216610bd15760405162461bcd60e51b8152602060048201526024808201527f4552433732313a207472616e7366657220746f20746865207a65726f206164646044820152637265737360e01b606482015260840161047c565b610bdc600082610993565b6001600160a01b0383166000908152600360205260408120805460019290610c059084906115aa565b90915550506001600160a01b0382166000908152600360205260408120805460019290610c33908490611676565b909155505060008181526002602052604080822080546001600160a01b0319166001600160a01b0386811691821790925591518493918716917fddf252ad1be2c89b69c2b068fc378daa952ba7f163c4a11628f55a4df523b3ef91a4505050565b600680546001600160a01b038381166001600160a01b0319831681179093556040519116919082907f8be0079c531659141344cd1fd0a4f28419497f9722a3daafe3b4186f6b6457e090600090a35050565b610641828260405180602001604052806000815250610f00565b816001600160a01b0316836001600160a01b03161415610d625760405162461bcd60e51b815260206004820152601960248201527f4552433732313a20617070726f766520746f2063616c6c657200000000000000604482015260640161047c565b6001600160a01b03838116600081815260056020908152604080832094871680845294825291829020805460ff191686151590811790915591519182527f17307eab39ab6107e8899845ad3d59bd9653f200f220920489ca2b5937696c31910160405180910390a3505050565b610dda848484610af8565b610de684848484610f33565b61086c5760405162461bcd60e51b815260040161047c9061168e565b606081610e265750506040805180820190915260018152600360fc1b602082015290565b8160005b8115610e505780610e3a816116e0565b9150610e499050600a83611711565b9150610e2a565b60008167ffffffffffffffff811115610e6b57610e6b61135b565b6040519080825280601f01601f191660200182016040528015610e95576020820181803683370190505b5090505b8415610af057610eaa6001836115aa565b9150610eb7600a86611725565b610ec2906030611676565b60f81b818381518110610ed757610ed7611739565b60200101906001600160f81b031916908160001a905350610ef9600a86611711565b9450610e99565b610f0a8383611040565b610f176000848484610f33565b6105b25760405162461bcd60e51b815260040161047c9061168e565b60006001600160a01b0384163b1561103557604051630a85bd0160e11b81526001600160a01b0385169063150b7a0290610f7790339089908890889060040161174f565b602060405180830381600087803b158015610f9157600080fd5b505af1925050508015610fc1575060408051601f3d908101601f19168201909252610fbe9181019061178c565b60015b61101b573d808015610fef576040519150601f19603f3d011682016040523d82523d6000602084013e610ff4565b606091505b5080516110135760405162461bcd60e51b815260040161047c9061168e565b805181602001fd5b6001600160e01b031916630a85bd0160e11b149050610af0565b506001949350505050565b6001600160a01b0382166110965760405162461bcd60e51b815260206004820181905260248201527f4552433732313a206d696e7420746f20746865207a65726f2061646472657373604482015260640161047c565b6000818152600260205260409020546001600160a01b0316156110fb5760405162461bcd60e51b815260206004820152601c60248201527f4552433732313a20746f6b656e20616c7265616479206d696e74656400000000604482015260640161047c565b6001600160a01b0382166000908152600360205260408120805460019290611124908490611676565b909155505060008181526002602052604080822080546001600160a01b0319166001600160a01b03861690811790915590518392907fddf252ad1be2c89b69c2b068fc378daa952ba7f163c4a11628f55a4df523b3ef908290a45050565b82805461118e90611559565b90600052602060002090601f0160209004810192826111b057600085556111f6565b82601f106111c957805160ff19168380011785556111f6565b828001600101855582156111f6579182015b828111156111f65782518255916020019190600101906111db565b50611202929150611206565b5090565b5b808211156112025760008155600101611207565b6001600160e01b03198116811461098757600080fd5b60006020828403121561124357600080fd5b813561124e8161121b565b9392505050565b60005b83811015611270578181015183820152602001611258565b8381111561086c5750506000910152565b60008151808452611299816020860160208601611255565b601f01601f19169290920160200192915050565b60208152600061124e6020830184611281565b6000602082840312156112d257600080fd5b5035919050565b80356001600160a01b03811681146112f057600080fd5b919050565b6000806040838503121561130857600080fd5b611311836112d9565b946020939093013593505050565b60008060006060848603121561133457600080fd5b61133d846112d9565b925061134b602085016112d9565b9150604084013590509250925092565b634e487b7160e01b600052604160045260246000fd5b600067ffffffffffffffff8084111561138c5761138c61135b565b604051601f8501601f19908116603f011681019082821181831017156113b4576113b461135b565b816040528093508581528686860111156113cd57600080fd5b858560208301376000602087830101525050509392505050565b6000602082840312156113f957600080fd5b813567ffffffffffffffff81111561141057600080fd5b8201601f8101841361142157600080fd5b610af084823560208401611371565b60006020828403121561144257600080fd5b61124e826112d9565b6000806040838503121561145e57600080fd5b8235915061146e602084016112d9565b90509250929050565b6000806040838503121561148a57600080fd5b611493836112d9565b9150602083013580151581146114a857600080fd5b809150509250929050565b600080600080608085870312156114c957600080fd5b6114d2856112d9565b93506114e0602086016112d9565b925060408501359150606085013567ffffffffffffffff81111561150357600080fd5b8501601f8101871361151457600080fd5b61152387823560208401611371565b91505092959194509250565b6000806040838503121561154257600080fd5b61154b836112d9565b915061146e602084016112d9565b600181811c9082168061156d57607f821691505b6020821081141561158e57634e487b7160e01b600052602260045260246000fd5b50919050565b634e487b7160e01b600052601160045260246000fd5b6000828210156115bc576115bc611594565b500390565b60208082526031908201527f4552433732313a207472616e736665722063616c6c6572206973206e6f74206f6040820152701ddb995c881b9bdc88185c1c1c9bdd9959607a1b606082015260800190565b6020808252818101527f4f776e61626c653a2063616c6c6572206973206e6f7420746865206f776e6572604082015260600190565b60008351611659818460208801611255565b83519083019061166d818360208801611255565b01949350505050565b6000821982111561168957611689611594565b500190565b60208082526032908201527f4552433732313a207472616e7366657220746f206e6f6e20455243373231526560408201527131b2b4bb32b91034b6b83632b6b2b73a32b960711b606082015260800190565b60006000198214156116f4576116f4611594565b5060010190565b634e487b7160e01b600052601260045260246000fd5b600082611720576117206116fb565b500490565b600082611734576117346116fb565b500690565b634e487b7160e01b600052603260045260246000fd5b6001600160a01b038581168252841660208201526040810183905260806060820181905260009061178290830184611281565b9695505050505050565b60006020828403121561179e57600080fd5b815161124e8161121b56fea264697066735822122044fed7633a1be9da979c3ac4126a9c0adaeb99fabef7aaa3456d7ea2736908af64736f6c63430008090033",
  "linkReferences": {},
  "deployedLinkReferences": {}
}